:100000000C942D000C9484020C9484020C948402B1
:100010000C9484020C9484020C9484020C94960137
:100020000C9484020C9484020C9484020C94840238
:100030000C9484020C9484020C9484020C94840228
:100040000C9484020C9484020C9484020C94840218
:100050000C9484020060006B800011241FBECFE569
:10006000D8E0DEBFCDBFE4E5F0E040E017C0B591D9
:10007000A59135912591059107FD0CC0959185912C
:10008000EF01F92FE82F05900D92A217B307D9F7CA
:10009000FE0104C01D92A217B307E1F7E935F4078A
:0E00A00031F70E94F9010C944702F894FFCF4B
:1000AE00CF92DF92EF92FF92CF930E943C026B01B0
:1000BE007C0180916A00813009F46DC038F0823085
:1000CE0009F4A5C0833009F4D3C0EEC0809160005E
:1000DE0090916100A0916200B0916300A70196011A
:1000EE00281B390B4A0B5B0BDA01C90188399A437D
:1000FE00A105B10518F40E948002D6C00E946302C9
:10010E00C82F8E3178F01092690080936800C092EB
:10011E006000D0926100E0926200F09263000E9453
:10012E008002C2C00E945C0281110EC064EF71E0B9
:10013E0083E00E946101C0926000D0926100E09263
:10014E006200F0926300B0C0809168008C1740F09E
:10015E00882331F0809169008F5F8093690002C01F
:10016E001092690080916900853018F00E94690232
:10017E009BC0C09368000E9474020E947C0281E0C2
:10018E0080936A00C0926000D0926100E09262009B
:10019E00F092630089C00E945C02811112C00E941D
:1001AE0078026CE271E085E00E94610110926A00B3
:1001BE00C0926000D0926100E0926200F092630003
:1001CE0073C08091600090916100A0916200B09127
:1001DE006300A7019601281B390B4A0B5B0BDA0152
:1001EE00C90188389341A105B10508F45DC00E948C
:1001FE0078020E94800282E080936A00C0926000C2
:10020E00D0926100E0926200F09263004DC0C7018F
:10021E00B60124EF31E040E050E00E94BB0120FD2A
:10022E0003C00E947C0202C00E9480028091600086
:10023E0090916100A0916200B0916300A7019601B8
:10024E00281B390B4A0B5B0BDA01C901803197422F
:10025E00A105B10548F110926A00C0926000D092DB
:10026E006100E0926200F09263000E9480021CC066
:10027E000E947802C701B60128EC30E040E050E061
:10028E000E94BB01CA01B9012AE030E040E050E013
:10029E000E94BB01643071058105910518F40E941E
:1002AE007C0202C00E948002CF91FF90EF90DF90FF
:0402BE00CF90089540
:1002C2000F931F93CF93DF93D82F8B01C0E026C0EB
:1002D2000E947C022FEF81EE94E0215080409040FA
:1002E200E1F700C000000E9480020A3C110530F0D4
:1002F2009801369527952456310902C020E030E056
:1003020080E090E007C0EFE9FFE03197F1F700C02D
:100312000000019682179307B0F3CF5FCD17C0F2AA
:0A032200DF91CF911F910F91089514
:10032C001F920F920FB60F9211248F939F93AF933E
:10033C00BF938091640090916500A0916600B0918C
:10034C0067000196A11DB11D809364009093650018
:10035C00A0936600B0936700BF91AF919F918F916E
:0A036C000F900FBE0F901F90189520
:10037600A1E21A2EAA1BBB1BFD010DC0AA1FBB1FA3
:10038600EE1FFF1FA217B307E407F50720F0A21B15
:10039600B30BE40BF50B661F771F881F991F1A9482
:1003A60069F760957095809590959B01AC01BD01AC
:0403B600CF010895D6
:1003BA00843823E09207A0F48D3221E0920790F06E
:1003CA0024E833E0281B390BA4E6B0E00E941302AC
:1003DA0028E532E040E050E00E94BB01822F0895F8
:0803EA0080E0089584E6089507
:1003F2000E9422020E946F020E94520278940E947E
:100402003C02DC01CB0188589341A109B1098093D8
:10041200600090936100A0936200B09363000E9419
:040422005700FDCFB3
:10042600A29FB001B39FC001A39F700D811D11242F
:0E043600911DB29F700D811D1124911D08951E
:1004440087B3816087BB87B3826087BB81B38B7FAF
:0A04540081BB82B3846082BB08956F
:10045E0097B1907F8F70892B87B986B1806486B9EA
:0A046E003699FECF84B195B10895D0
:10047800F894609164007091650080916600909195
:060488006700789408955E
:10048E00EC010E9489020E948802CE010E948A021B
:06049E00CE010E9486025F
:1004A4008BE08EBD89EF90E09BBD8ABD89B78061EA
:0404B40089BF08955F
:0E04B80080B38695869591E08927817008951E
:0C04C60080E00E942F020E94DD010895DA
:0C04D2000E94780283E080936A00089585
:0A04DE0080E487B986E886B9089526
:0804E80088B3816088BB089510
:0804F00088B38E7F88BB0895DC
:0804F80088B3826088BB0895FF
:0805000088B38D7F88BB0895CC
:040508000C9400004F
:04050C000E945500F4
:0205100008954C
:0205120008954A
:02051400089548
:00000001FF
